:020000040800F2
:10000000200D0020A13B0008013400080334000843
:10001000073400080B3400080F340008000000000B
:10002000000000000000000000000000B33B0008DA
:10003000B53B000800000000B73B0008B93B0008D2
:10004000BB3B0008BB3B0008BB3B0008BB3B0008B8
:10005000BB3B0008BB3B0008BB3B0008BB3B0008A8
:10006000BB3B0008BB3B0008BB3B0008BB3B000898
:10007000BB3B0008BB3B0008BB3B0008BB3B000888
:10008000BB3B0008BB3B0008BB3B0008BB3B000878
:10009000BB3B0008BB3B0008BB3B0008BB3B000868
:1000A000BB3B0008BB3B0008BB3B0008BB3B000858
:1000B0001334000859340008BB3B0008BB3B000860
:1000C000BB3B0008BB3B0008BB3B0008BB3B000838
:1000D000BB3B00086F34000895340008BB340008AF
:1000E000BB3B0008BB3B0008BB3B0008BB3B000818
:1000F000BB3B0008BB3B0008BB3B0008BB3B000808
:10010000BB3B0008BB3B0008BB3B0008BB3B0008F7
:10011000BB3B0008BB3B0008BB3B0008BB3B0008E7
:10012000BB3B0008BB3B0008BB3B0008BB3B0008D7
:10013000DFF80CD006F0FCF900480047812C0008DD
:10014000200D002010B505F0D9FC1023FAA20021E3
:10015000502005F0ADFD1023F9A20221002005F08A
:10016000A7FD1023F8A20421002005F0A1FD102313
:10017000F7A20621002005F09BFD70E005F0EEFEE1
:10018000F649488806F0F2F8F5494860F54948888C
:1001900006F0ECF8F4494860F14805F0E8FA044646
:1001A00006F0E9F8ED498861EF4805F0E0FA044609
:1001B00006F0E1F8EB498861E848006AC0EB0010FE
:1001C0004FF4FA7101EB8000E4498969401AE34970
:1001D000C861E448006AC0EB00104FF4FA7101EB0B
:1001E0008000E0498969401ADE49C861DB48C0697E
:1001F000B0F52F7F03DD4FF42F70D849C861D74881
:10020000C069B0F5967F03DA4FF49670D349C861A0
:10021000D448C069B0F52F7F03DD4FF42F70D1496A
:10022000C861D048C069B0F5967F03DA4FF4967084
:10023000CC49C861C948808B01B22822012005F051
:10024000EFF9C848808B01B22822022005F0E8F9B6
:10025000C6480078062802D105F050FC00E08DE782
:1002600000BF10BD08B505F049FC1023C0A2002155
:10027000084605F01DFD3EE005F070FEBB48007825
:10028000052804D1B54840880A30B4494880B748A9
:100290000078082804D1B14840880A38AF4948801E
:1002A000B2480078092804D1AC484088401CAB49CA
:1002B0004880AE480078072804D1A8484088401EEE
:1002C000A649488010200090A448428805230421B4
:1002D000282005F0A9FC10200090A24842880523A0
:1002E0000421582005F0A0FCA0480078062802D17F
:1002F00005F004FC00E0BFE700BF08BD38B50124ED
:1003000005F0FCFB10239FA20021084605F0D0FC5D
:100310001023A1A20221002005F0CAFC1023A2A2F2
:100320000421002005F0C4FC1023A1A20621002016
:1003300005F0BEFCD2E105F011FE102000908748C8
:10034000428805230621282005F06EFC102000902D
:100350008448428805230621582005F065FC83481F
:100360000078052803D081480078072803D1012CA4
:1003700001DD601EC4B27D480078082803D07B48A8
:100380000078092803D1092C01DA601CC4B20A2CB8
:100390007ED2DFE804F07D051E375069849DB6CF1C
:1003A000102385A20221202005F082FC102000905D
:1003B0006A48C28805230421282005F035FC102056
:1003C00000906848C28805230421582005F02CFCC1
:1003D0001CE1102379A20221202005F069FC1020E5
:1003E00000905E48028905230421282005F01CFCAA
:1003F000102000905B48028905230421582005F055
:1004000013FC03E110236EA20221202005F050FC12
:10041000102000905148428905230421282005F02E
:1004200003FC102000904F484289052304215820E6
:1004300005F0FAFBEAE0102362A20221202005F079
:1004400037FC10200090454882890523042128208C
:1004500005F0EAFB10200090424882890523042120
:10046000582005F0E1FBD1E0102357A20221202003
:1004700005F01EFC102000903848C2890523042195
:10048000282005F0D1FB102000903648C28900E0FA
:10049000BBE005230421582005F0C6FBB6E010237D
:1004A0004AA20221202005F003FC102000902B48D6
:1004B000028A05230421282005F0B6FB10200090B5
:1004C0002848028A05230421582005F0ADFB9DE051
:1004D00010233FA20221202005F0EAFB102000900B
:1004E0001E48428A05230421282005F09DFB102088
:1004F00000901C48428A05230421582005F094FBF3
:1005000084E0102333A20221202005F0D1FB10202B
:1005100000901248828A05230421282005F084FBDC
:10052000102000900F48828A05230421582005F0EE
:100530007BFB6BE050E000005820202059000000B9
:10054000204E6F7700000000737065656400000046
:10055000416E676C65577274000000000000002057
:100560009008002028000020B40800208805002002
:100570003D3D3D3D3D5365745049443D3D3D3D3D10
:10058000000000003D3D3D3D536574506F696E7441
:100590003D3D3D3D000000005365743A2020202081
:1005A000205820202059000056616C75650000001D
:1005B00042616C6C000000005031000050320000BD
:1005C0005033000050340000503500005036000019
:1005D00050370000503800001023FEA202212020D6
:1005E00005F066FB10200090FB48C28A0523042119
:1005F000282005F019FB10200090F848C28A052336
:100600000421582005F010FB00E000BF00BFF448B3
:10061000007804285BD10A2C57D2DFE804F0560595
:100620000E172029323B444DEB484088EA49C880E8
:10063000EA484088E949C88048E0E7484088E649F8
:100640000881E6484088E54908813FE0E248408863
:10065000E1494881E1484088E049488136E0DE4888
:100660004088DD498881DD484088DC4988812DE06B
:10067000D9484088D849C881D8484088D749C881D6
:1006800024E0D5484088D4490882D4484088D349DA
:1006900008821BE0D0484088CF494882CF48408834
:1006A000CE49488212E0CC484088CB498882CB486A
:1006B0004088CA49888209E0C7484088C649C8823C
:1006C000C6484088C549C88200E000BF00BFC44892
:1006D0000078062802D105F011FA00E02BE600BFF1
:1006E00038BD08B505F00AFA1023BEA2002108465D
:1006F00005F0DEFA1023C0A20221002005F0D8FA8E
:100700001023BEA20421002005F0D2FA44E005F037
:1007100025FCB3480078012825D1AF484088AE4970
:100720008880AE484088AD498880AB49488805F04C
:100730001DFEB3490860A949488805F017FEB14974
:10074000086010200090A4488288052302215020D0
:1007500005F06AFA10200090A04882880523042141
:10076000502005F061FA102000909B484288052334
:100770000221202005F058FA102000909748428866
:1007800005230421202005F04FFA9548007806281B
:1007900002D105F0B3F900E0B9E700BF08BD10B51C
:1007A00005F0ACF9102398A20221002005F080FA90
:1007B00004F0A2FF3F208849888048803C20874978
:1007C000888048808449488805F0D0FD8C4948607D
:1007D0008249488805F0CAFD8A4948607E49888870
:1007E00005F0C4FD864908607C49888805F0BEFD97
:1007F0008449086008E005F0B1FB794800780628D4
:1008000002D105F07BF900E0F5E700BF10BD70B53F
:100810000024032505F072F9102380A20021084668
:1008200005F046FA10237FA20221002005F040FACD
:10083000102380A206211E2005F03AFACEE204F031
:100840005BFF6548C089083080B263498880488072
:100850006248C0896149888048805F49488805F0BE
:1008600085FD674948605D49488805F07FFD654919
:1008700048605949888805F079FD61490860574901
:10088000888805F073FD5F490860002476E0641CE9
:1008900005F064FB5049488805F068FD58494860F8
:1008A0004E49488805F062FD56494860544804F0B6
:1008B0005EFF064605F05FFD47498861514804F038
:1008C00056FF064605F057FD444988614248006AD4
:1008D000C0EB00104FF4FA7101EB80003E498969CA
:1008E000401A3D49C8613D48006AC0EB00104FF412
:1008F000FA7101EB800039498969401A3749C861AA
:100900003548C069B0F52F7F03DD4FF42F703249B1
:10091000C8613148C069B0F5967F03DA4FF496702C
:100920002D49C8612D48C069B0F52F7F03DD4FF414
:100930002F702A49C8612948C069B0F5967F03DA4B
:100940004FF496702549C8612348808B01B2282254
:10095000012004F065FE2148808B01B2282202208C
:1009600004F05EFE40F6C410844200DD07E01C483F
:100970000078062802D105F0C1F800E087E700BF43
:1009800004F0BAFE1448C089083080B21249888049
:1009900048801248C0891149888048800E4948889B
:1009A00005F0E4FC164948600C49488805F0DEFC77
:1009B000144948600849888805F0D8FC1049086047
:1009C0000649888805F0D2FC0E49086010231BA256
:1009D000062137E0503900000000002028000020E8
:1009E000880500203D3D3D3D53686F7742616C6C4A
:1009F0003D3D3D3D0000000020583A0020593A009E
:100A000090080020B408002073746179206F6E2074
:100A10003220696E2035732E000000006D6F726504
:100A2000203300004D6F766520736F726F756E64B2
:100A300020350000506172742032000050617274E1
:100A4000203100001E2005F033F976E0641C05F02B
:100A500085FAFA49488805F089FCF9494860F9495E
:100A6000488805F083FCF8494860F54804F07FFEAB
:100A7000064605F080FCF1498861F34804F077FEF2
:100A8000064605F078FCEF498861EC48006AC0EB47
:100A900000104FF4FA7101EB8000E8498969401AAF
:100AA000E649C861E748006AC0EB00104FF4FA71EC
:100AB00001EB8000E3498969401AE249C861DF48D7
:100AC000C069B0F52F7F03DD4FF42F70DB49C8619B
:100AD000DA48C069B0F5967F03DA4FF49670D749CB
:100AE000C861D848C069B0F52F7F03DD4FF42F707F
:100AF000D449C861D348C069B0F5967F03DA4FF492
:100B00009670D049C861CD48808B01B2282201205F
:100B100004F086FDCB48808B01B22822022004F02D
:100B20007FFD40F6C410844200DD07E0C74800782E
:100B3000062802D104F0E2FF00E087E700BF10239F
:100B4000AFF2101206211E2005F0B2F804F0D4FD19
:100B5000BA48C089B94988804880BA48C0890838ED
:100B600080B2B84988804880B449488805F0FEFBC7
:100B7000B3494860B349488805F0F8FBB24948607A
:100B8000AE49888805F0F2FBAD490860AD49888818
:100B900005F0ECFBAC490860002476E0641C05F02D
:100BA000DDF9A649488805F0E1FBA5494860A5495B
:100BB000488805F0DBFBA4494860A14804F0D7FD54
:100BC000064605F0D8FB9D4988619F4804F0CFFD9B
:100BD000064605F0D0FB9B4988619848006AC0EB47
:100BE00000104FF4FA7101EB800094498969401AB2
:100BF0009249C8619348006AC0EB00104FF4FA7143
:100C000001EB80008F498969401A8E49C8618B4881
:100C1000C069B0F52F7F03DD4FF42F708749C8619D
:100C20008648C069B0F5967F03DA4FF49670834921
:100C3000C8618448C069B0F52F7F03DD4FF42F7081
:100C40008049C8617F48C069B0F5967F03DA4FF4E8
:100C500096707C49C8617948808B01B228220120B6
:100C600004F0DEFC7748808B01B22822022004F0D9
:100C7000D7FC40F6C410844200DD07E073480078DA
:100C8000062802D104F03AFF00E087E700BF1023F6
:100C90006FA206211E2005F00BF804F02DFD674819
:100CA000C089083880B26549888048806548C08915
:100CB0006449888048806149488805F057FB60494D
:100CC00048606049488805F051FB5F4948605B49CE
:100CD000888805F04BFB5A4908605A49888805F016
:100CE00045FB59490860002476E0641C05F036F99C
:100CF0005249488805F03AFB5149486051494888B3
:100D000005F034FB504948604D4804F030FD06467C
:100D100005F031FB494988614B4804F028FD06463F
:100D200005F029FB474988614448006A00EB8000D0
:100D30004FF4FA7101EB001040498969401A3F49AC
:100D4000C8614048006A00EB80004FF4FA7101EB83
:100D500000103C498969401A3A49C8613748C0695E
:100D6000B0F52F7F03DD4FF42F703449C86133484D
:100D7000C069B0F5967F03DA4FF496702F49C861C9
:100D80003048C069B0F52F7F03DD4FF42F702D4937
:100D9000C8612C48C069B0F5967F03DA4FF49670AD
:100DA0002849C8612548808B01B22822012004F01F
:100DB00037FC2448808B01B22822022004F030FC4A
:100DC00040F6B830844200DD07E02048007806286D
:100DD00002D104F093FE00E087E700BF281EA5F1D2
:100DE00001057FF42CAD10231BA206211E2004F068
:100DF0005FFF04F081FC1148C08A10498880488058
:100E00001048C08A0F49888048800C49488805F0FE
:100E1000ADFA0B4948600B49488805F0A7FA0A4922
:100E200048600649888805F0A1FA05490860054927
:100E3000888805F09BFA0449086082E000000020E1
:100E40009008002028000020B40800208805002019
:100E500050617274203300005061727420350000BC
:100E600005F07CF8FE49488805F080FAFD494860A5
:100E7000FD49488805F07AFAFC494860F94804F0D1
:100E800076FC064605F077FAF5498861F74804F0E4
:100E90006EFC064605F06FFAF3498861F048006A77
:100EA000C0EB001000EB800000F5FA70EC49896996
:100EB000401AEB49C861EC48006AC0EB001000EB37
:100EC000800000F5FA70E8498969401AE649C8616E
:100ED000E348C069B0F52F7F03DD4FF42F70E04980
:100EE000C861DF48C069B0F5967F03DA4FF49670A9
:100EF000DB49C861DC48C069B0F52F7F03DD4FF4E2
:100F00002F70D949C861D848C069B0F5967F03DA17
:100F10004FF49670D449C861D148808B01B2282221
:100F2000012004F07DFBD048808B01B228220220F2
:100F300004F076FBCE480078062802D104F0DEFDEE
:100F400000E08DE700BF4FF4FA721146012004F073
:100F500067FB4FF4FA721146022004F061FB70BD8A
:100F600070B5002404F0CAFD1023C2A20021084677
:100F700004F09EFE1023C1A20221002004F098FE7E
:100F80001023C2A20421002004F092FE1023AFF22D
:100F90005C5206211E2004F08BFE04F0ADFBB0492C
:100FA0000989AF4AD288881800EBD071C1F34F018C
:100FB000AB4A91805180AC490989AB4AD2888818E4
:100FC00000EBD071C1F34F01A74A91805180A44931
:100FD000488805F0CBF9A3494860A349488805F043
:100FE000C5F9A24948609E49888805F0BFF99D4926
:100FF00008609D49888805F0B9F99C49086000BFE0
:1010000076E0641C04F0AAFF9549488805F0AEF923
:10101000944948609449488805F0A8F99349486084
:10102000904804F0A4FB054605F0A5F98C498861B9
:101030008E4804F09CFB054605F09DF98A498861BD
:101040008748006AC0EB00104FF4FA7101EB800092
:1010500083498969401A8249C8618348006AC0EBA4
:1010600000104FF4FA7101EB80007F498969401A42
:101070007D49C8617A48C069B0F52F7F03DD4FF420
:101080002F707749C8617648C069B0F5967F03DA5A
:101090004FF496707249C8617348C069B0F52F7FEC
:1010A00003DD4FF42F707049C8616F48C069B0F517
:1010B000967F03DA4FF496706B49C8616848808B5D
:1010C00001B22822012004F0ABFA6748808B01B2FC
:1010D0002822022004F0A4FA40F6C410844200D969
:1010E00007E063480078062802D104F007FD00E01D
:1010F00087E700BF04F000FB594800895849888001
:10110000488059480089584988804880544948880F
:1011100005F02CF9534948605349488805F026F9F1
:10112000524948604E49888805F020F94D490860C9
:101130004D49888805F01AF94C4908601023AFF230
:10114000047206211E2004F0B3FD76E0641C04F056
:1011500005FF4349488805F009F94249486042497A
:10116000488805F003F9414948603E4804F0FFFA19
:10117000054605F000F93A4988613C4804F0F7FA61
:10118000054605F0F8F8384988613548006AC0EB33
:1011900000104FF4FA7101EB800031498969401A5F
:1011A0002F49C8613048006AC0EB00104FF4FA7153
:1011B00001EB80002C498969401A2B49C8612848F5
:1011C000C069B0F52F7F03DD4FF42F702449C8614B
:1011D0002348C069B0F5967F03DA4FF49670204932
:1011E000C8612148C069B0F52F7F03DD4FF42F702F
:1011F0001D49C8611C48C069B0F5967F03DA4FF4F9
:1012000096701949C8611648808B01B228220120C6
:1012100004F006FA1448808B01B22822022004F060
:10122000FFF940F6C410844200D907E01048007866
:10123000062802D104F062FC00E087E700BF10231B
:10124000AFF6100206211E2004F032FD04F054FA1D
:1012500003490989024A128A881800EBD0711DE0FF
:10126000000000209008002028000020B408002082
:10127000880500204D6F7265203200004D6F766545
:1012800020627920706F696E7473000041203E20E7
:1012900042203E2043203E2044200000C1F34F0165
:1012A000F84A91805180F8490989F74A128A8818CA
:1012B00000EBD071C1F34F01F34A91805180F149A5
:1012C000488805F053F8F1494860EF49488805F02F
:1012D0004DF8EF494860EB49888805F047F8EB493D
:1012E0000860E949888805F041F8E9490860002468
:1012F00076E0641C04F032FEE249488805F036F8D6
:10130000E2494860E049488805F030F8E049486023
:10131000DE4804F02CFA054605F02DF8D94988611D
:10132000DB4804F024FA054605F025F8D649886123
:10133000D448006AC0EB00104FF4FA7101EB800052
:10134000D0498969401ACF49C861CF48006AC0EBCB
:1013500000104FF4FA7101EB8000CB498969401A03
:10136000C949C861C748C069B0F52F7F03DD4FF494
:101370002F70C449C861C348C069B0F5967F03DACD
:101380004FF49670BF49C861BF48C069B0F52F7F60
:1013900003DD4FF42F70BC49C861BB48C069B0F58C
:1013A000967F03DA4FF49670B749C861B548808BD1
:1013B00001B22822012004F033F9B348808B01B236
:1013C0002822022004F02CF940F6C410844200D9EF
:1013D00007E0B0480078062802D104F08FFB00E057
:1013E00087E700BF1023AFF2985206211E2004F0B9
:1013F0005FFC04F081F9A348008AA24988804880F4
:10140000A148008AA049888048809E49488804F005
:10141000ADFF9E4948609C49488804F0A7FF9C495D
:1014200048609849888804F0A1FF98490860964967
:10143000888804F09BFF96490860002476E0641CCD
:1014400004F08CFD8F49488804F090FF8F49486074
:101450008D49488804F08AFF8D4948608B4804F024
:1014600086F9054604F087FF86498861884804F0BC
:101470007EF9054604F07FFF834988618148006A50
:1014800000EB80004FF4FA7101EB00107D4989698F
:10149000401A7C49C8617C48006A00EB80004FF428
:1014A000FA7101EB001078498969401A7649C861E0
:1014B0007448C069B0F52F7F03DD4FF42F70714978
:1014C000C8617048C069B0F5967F03DA4FF4967032
:1014D0006C49C8616C48C069B0F52F7F03DD4FF4DB
:1014E0002F706949C8616848C069B0F5967F03DA12
:1014F0004FF496706449C8616248808B01B228221B
:10150000012004F08DF86048808B01B2282202206F
:1015100004F086F840F6B830844200D907E05D4810
:101520000078062802D104F0E9FA00E087E700BF5E
:10153000102359A206211E2004F0BAFB04F0DCF8A7
:101540005049C98A4F4A128A881800EBD071C1F3FA
:101550004F014C4A918051804B49C98A4A4A128AAC
:10156000881800EBD071C1F34F01474A9180518038
:101570004449488804F0FAFE444948604249488892
:1015800004F0F4FE424948603E49888804F0EEFECB
:101590003E4908603C49888804F0E8FE3C49086000
:1015A000002484E0641C04F0D9FC3649488804F027
:1015B000DDFE364948603449488804F0D7FE344996
:1015C0004860324804F0D3F8054604F0D4FE2D49B3
:1015D00088612F4804F0CBF8054604F0CCFE2A4978
:1015E00088612848006A00EB80004FF4FA7101EB33
:1015F000001024498969401A2249C8612248006ABA
:1016000000EB80004FF4FA7101EB00101E4989696C
:10161000401A1D49C8611B48C069B0F52F7F03DD22
:101620004FF42F701749C8611648C069B0F5967F0E
:1016300003DA4FF496701349C8611348C069B0F5D6
:101640002F7F03DD4FF42F700F49C8610E48C0692A
:10165000B0F5967F03DA4FF496700B49C8610948DC
:10166000808B01B22822012003F0DAFF0648808B2C
:1016700001B22822022003F0D3FF40F6C4108442B6
:101680000ED915E00000002028000020900800205E
:10169000B4080020880500205061727420340000D6
:1016A000FE480078062802D104F028FA00E079E725
:1016B00000BF1023AFF6600206211E2004F0F8FAE6
:1016C00004F01AF8F648C08AF54988804880F54841
:1016D000C08AF44988804880F149488804F046FE71
:1016E000F1494860EF49488804F040FEEF494860FE
:1016F000EB49888804F03AFEEB490860E94988889C
:1017000004F034FEE949086070E004F027FCE44985
:10171000488804F02BFEE4494860E249488804F018
:1017200025FEE2494860E04804F021F8054604F04F
:1017300022FEDB498861DD4804F019F8054604F013
:101740001AFED8498861D648006AC0EB001000EB49
:10175000800000F5FA70D2498969401AD049C86101
:10176000D048006AC0EB001000EB800000F5FA7072
:10177000CC498969401ACB49C861C948C069B0F5EC
:101780002F7F03DD4FF42F70C549C861C448C0697D
:10179000B0F5967F03DA4FF49670C149C861C1482D
:1017A000C069B0F52F7F03DD4FF42F70BD49C861CC
:1017B000BC48C069B0F5967F03DA4FF49670B9491A
:1017C000C861B748808B01B22822012003F028FFAE
:1017D000B448808B01B22822022003F021FFAF48D9
:1017E0000078062802D104F089F900E08DE700BFF7
:1017F0004FF4FA721146012003F012FF4FF4FA720F
:101800001146022003F00CFF70BD70B5002404F0F7
:1018100075F91023A6A20021084604F049FA102306
:10182000AFF2A8520221002004F042FA1023A2A233
:101830000421002004F03CFA03F05EFF9848008980
:1018400097498880488097480089401D80B2954913
:10185000888048809249488804F088FD9249486011
:101860009049488804F082FD904948608C498888F6
:1018700004F07CFD8C4908608A49888804F076FD74
:101880008A4908601023AFF64C6206211E2004F03E
:101890000FFA76E0641C04F061FB8149488804F08B
:1018A00065FD814948607F49488804F05FFD7F49B4
:1018B00048607D4803F05BFF054604F05CFD784915
:1018C00088617A4803F053FF054604F054FD7549DA
:1018D00088617348006AC0EB00104FF4FA7101EBA5
:1018E00080006F498969401A6D49C8616D48006A76
:1018F000C0EB00104FF4FA7101EB8000694989696F
:10190000401A6849C8616648C069B0F52F7F03DD99
:101910004FF42F706249C8616148C069B0F5967F85
:1019200003DA4FF496705E49C8615E48C069B0F54D
:101930002F7F03DD4FF42F705A49C8615948C069A1
:10194000B0F5967F03DA4FF496705649C861544853
:10195000808B01B22822012003F062FE5148808B67
:1019600001B22822022003F05BFE40F6C41084423C
:1019700000D907E049480078062802D104F0BEF8F3
:1019800000E087E700BF1023AFF6587206211E2043
:1019900004F08EF903F0B0FE41490989404A128AE9
:1019A000881800EBD071C1F34F013D4A91805180FE
:1019B0003C4909893B4A128A881800EBD071C1F36F
:1019C0004F01384A918051803549488804F0CEFC57
:1019D000354948603349488804F0C8FC33494860B9
:1019E0002F49888804F0C2FC2F4908602D49888857
:1019F00004F0BCFC2D49086000248DE0641C04F058
:101A0000ADFA2749488804F0B1FC274948602549C8
:101A1000488804F0ABFC25494860234803F0A7FE42
:101A2000054604F0A8FC1E498861204803F09FFE8B
:101A3000054604F0A0FC1B4988611948006AC0EB08
:101A400000104FF4FA7101EB800015498969401AC2
:101A50001349C8611348006AC0EB00104FF4FA71D3
:101A600001EB80000F498969401A0E49C8610C4892
:101A7000C069B0F52F7F03DD4FF42F700849C861AE
:101A80000748C069B0F5967F03DA4FF496700449B1
:101A9000C8610448C069B0F52F7F15E088050020B3
:101AA000000000202800002090080020B40800203A
:101AB0004D6F72652031000031203E2032203E20E3
:101AC00036203E203920000003DD4FF42F70FE4900
:101AD000C861FD48C069B0F5967F03DA4FF496708F
:101AE000F949C861F948808B01B22822012003F02E
:101AF00097FDF548808B01B22822022003F090FD6B
:101B000040F6C410844200D907E0F1480078062866
:101B100002D103F0F3FF00E070E700BF1023AFF63F
:101B2000D04206211E2004F0C3F803F0E5FDE7488B
:101B3000008A401F80B2E54988804880E248008AD8
:101B4000401D80B2E04988804880E049488804F020
:101B50000DFCE0494860DC49488804F007FCDE4998
:101B60004860DA49888804F001FCDA490860D649FF
:101B7000888804F0FBFBD8490860002476E0641CE8
:101B800004F0ECF9D149488804F0F0FBD1494860F1
:101B9000CD49488804F0EAFBCF494860CD4803F0BE
:101BA000E6FD054604F0E7FBC8498861CA4803F032
:101BB000DEFD054604F0DFFBC3498861C348006AC7
:101BC000C0EB00104FF4FA7101EB8000BF49896946
:101BD000401ABE49C861BC48006AC0EB00104FF40F
:101BE000FA7101EB8000B8498969401AB649C861A9
:101BF000B648C069B0F52F7F03DD4FF42F70B349AD
:101C0000C861B248C069B0F5967F03DA4FF49670A8
:101C1000AE49C861AC48C069B0F52F7F03DD4FF411
:101C20002F70A949C861A848C069B0F5967F03DA4A
:101C30004FF49670A449C861A448808B01B2282251
:101C4000012003F0EDFCA048808B01B22822022085
:101C500003F0E6FC40F6B830844200D907E09C4827
:101C60000078062802D103F049FF00E087E700BFB3
:101C70001023AFF2DC5206211E2004F019F803F005
:101C80003BFD9249C98A914A128A881800EBD071AB
:101C9000C1F34F018D4A918051808B49C98A8A4A8C
:101CA000128A881800EBD071C1F34F01864A9180E7
:101CB00051808649488804F059FB8649486082492A
:101CC000488804F053FB844948608049888804F0C0
:101CD0004DFB804908607C49888804F047FB7E49B9
:101CE0000860002476E0641C04F038F977494888DD
:101CF00004F03CFB774948607349488804F036FBA0
:101D000075494860734803F032FD054604F033FB23
:101D10006E498861704803F02AFD054604F02BFBEC
:101D2000694988616948006AC0EB00104FF4FA7194
:101D300001EB800065498969401A6449C8616248BD
:101D4000006AC0EB00104FF4FA7101EB80005E49AD
:101D50008969401A5C49C8615C48C069B0F52F7F49
:101D600003DD4FF42F705949C8615848C069B0F578
:101D7000967F03DA4FF496705449C8615248C0699F
:101D8000B0F52F7F03DD4FF42F704F49C8614E48E7
:101D9000C069B0F5967F03DA4FF496704A49C8617E
:101DA0004A48808B01B22822012003F039FC4648C2
:101DB000808B01B22822022003F032FC40F6C410CE
:101DC000844200D907E042480078062802D103F097
:101DD00095FE00E087E700BF1023AFF6847206216E
:101DE0001E2003F065FF03F087FC3848C08A37499E
:101DF000888048803448C08A334988804880334985
:101E0000488804F0B3FA334948602F49488804F001
:101E1000ADFA314948602D49888804F0A7FA2D4968
:101E200008602949888804F0A1FA2B49086080E0FD
:101E300004F094F82549488804F098FA2549486048
:101E40002149488804F092FA23494860214803F068
:101E50008EFC054604F08FFA1C4988611E4803F089
:101E600086FC054604F087FA174988611748006A1E
:101E7000C0EBC00000EB80004FF4FA7101EB4000B2
:101E800012498969401A1149C8610F48006AC0EBBC
:101E9000C00000EB80004FF4FA7101EB40000A49EA
:101EA0008969401A0849C8610848C069B0F52F7FA0
:101EB00003DD4FF42F700549C8610448C069B0F5CF
:101EC000967F0FDA0AE000002800002000000020C2
:101ED0008805002090080020B40800204FF4967078
:101EE000FE49C861FE48C069B0F52F7F03DD4FF49D
:101EF0002F70FB49C861FA48C069B0F5967F03DAD4
:101F00004FF49670F649C861F448808B01B22822DC
:101F1000012003F085FBF248808B01B228220220C9
:101F200003F07EFBEF480078062802D103F0E6FDBF
:101F300000E07DE700BF4FF4FA721146012003F084
:101F40006FFB4FF4FA721146022003F069FB70BD7B
:101F500070B5002403F0D2FD1023E3A2002108464F
:101F600003F0A6FE1023E2A20221002003F0A0FE4F
:101F700003F0C2FBD948C089D84988804880D84836
:101F8000C089D74988804880D449488804F0EEF950
:101F9000DE494860D249488804F0E8F9DC494860E5
:101FA000CE49888804F0E2F9D8490860CC4988888D
:101FB00004F0DCF9D64908601023D64A06211E2019
:101FC00003F076FE76E0641C03F0C8FFC34948883E
:101FD00004F0CCF9CD494860C149488804F0C6F9FD
:101FE000CB494860C94803F0C2FB054604F0C3F979
:101FF000BA498861C64803F0BAFB054604F0BBF94C
:10200000B7498861B548006AC0EB00104FF4FA7117
:1020100001EB8000B1498969401AB049C861B048F4
:10202000006AC0EB00104FF4FA7101EB8000AC497C
:102030008969401AAA49C861A848C069B0F52F7FCC
:1020400003DD4FF42F70A549C861A448C069B0F5FD
:10205000967F03DA4FF49670A049C861A048C06922
:10206000B0F52F7F03DD4FF42F709D49C8619C4868
:10207000C069B0F5967F03DA4FF496709849C8614D
:102080009648808B01B22822012003F0C9FA9448B7
:10209000808B01B22822022003F0C2FA40F2DC5009
:1020A000844200D907E08F480078062802D103F067
:1020B00025FD00E087E700BF1023964A083A062175
:1020C0001E2003F0F5FD03F017FB4B2083498880A9
:1020D00048808349888048808049488804F046F9D0
:1020E0008A4948607E49488804F040F98849486038
:1020F0007A49888804F03AF98449086078498888E0
:1021000004F034F982490860002476E0641C03F08E
:1021100025FF7249488804F029F97C4948607049D4
:10212000488804F023F97A494860784803F01FFB97
:10213000054604F020F969498861754803F017FBEA
:10214000054604F018F9664988616448006AC0EBE6
:1021500000104FF4FA7101EB800060498969401A60
:102160005E49C8615E48006AC0EB00104FF4FA7126
:1021700001EB80005A498969401A5949C86157489A
:10218000C069B0F52F7F03DD4FF42F705349C8614C
:102190005248C069B0F5967F03DA4FF496704F4904
:1021A000C8614F48C069B0F52F7F03DD4FF42F7031
:1021B0004B49C8614A48C069B0F5967F03DA4FF4CD
:1021C00096704749C8614548808B01B2282201209A
:1021D00003F026FA4248808B01B22822022003F045
:1021E0001FFA40F2DC50844200D907E03D480078F5
:1021F000062802D103F082FC00E087E700BF10232D
:10220000454A06211E2003F053FD03F075FA5520C0
:102210003249888048803249888048802F494888E0
:1022200004F0A4F8394948602D49488804F09EF824
:10223000374948602949888804F098F8334908608C
:102240002749888804F092F831490860002499E011
:10225000641C03F083FE2149488804F087F82B4969
:1022600048601F49488804F081F829494860274898
:1022700003F07DFA054604F07EF818498861244889
:1022800003F075FA054604F076F81549886113489D
:10229000006AC0EB001000EB800000F5FA700F49F7
:1022A0008969401A0D49C8610D48006AC0EBC00039
:1022B00000EB80004FF4FA7101EB40000849896996
:1022C000401A0749C8610548C069B0F52F7F03DD92
:1022D0004FF42F700149C86100481FE00000002042
:1022E00028000020880500204974656D2034000016
:1022F0004D6F76652066726F6D203120746F2039C6
:102300002C73746179203273000000009008002063
:10231000B40800203C0A0008500E0008C069B0F55F
:10232000967F03DA4FF49670FE49C861FE48C06993
:10233000B0F52F7F03DD4FF42F70FB49C861FA48D9
:10234000C069B0F5967F03DA4FF49670F649C8611C
:10235000F448808B01B22822012003F061F9F24891
:10236000808B01B22822022003F05AF940F2DC509F
:10237000844200D907E0ED480078062802D103F036
:10238000BDFB00E064E700BF1023AFF6F442062176
:102390001E2003F08DFC03F0AFF9E248C08AE1494A
:1023A00088804880E048C08ADF4988804880DD49CD
:1023B000488803F0DBFFDE494860DB49488803F0CA
:1023C000D5FFDC494860D749888803F0CFFFD8495A
:1023D0000860D549888803F0C9FFD649086070E0D5
:1023E00003F0BCFDCF49488803F0C0FFD0494860E6
:1023F000CD49488803F0BAFFCE494860CC4803F085
:10240000B6F9054603F0B7FFC6498861C94803F02D
:10241000AEF9054603F0AFFFC3498861C148006AC1
:1024200000EB80004FF4FA7101EB0010BD4989699F
:10243000401ABC49C861BC48006A00EB80004FF4F8
:10244000FA7101EB0010B8498969401AB649C861B0
:10245000B448C069B0F52F7F03DD4FF42F70B14948
:10246000C861B048C069B0F5967F03DA4FF4967042
:10247000AC49C861AC48C069B0F52F7F03DD4FF4AB
:102480002F70A949C861A848C069B0F5967F03DAE2
:102490004FF49670A449C861A248808B01B22822EB
:1024A000012003F0BDF8A048808B01B22822022051
:1024B00003F0B6F89D480078062802D103F01EFB11
:1024C00000E08DE700BF4FF4FA721146012003F0DF
:1024D000A7F84FF4FA721146022003F0A1F870BD7C
:1024E00070B5002403F00AFB102393A200210846D4
:1024F00003F0DEFB102392A20221002003F0D8FBA0
:10250000102396A20421002003F0D2FB03F0F4F87C
:1025100084488089834988804880834880898249AB
:10252000888048807F49488803F020FF80494860C0
:102530007D49488803F01AFF7E49486079498888B8
:1025400003F014FF7A4908607749888803F00EFF8A
:10255000784908601023844A06211E2003F0A8FB56
:102560007CE0641CB4F57A7F02D1002070490862D7
:1025700003F0F4FC6B49488803F0F8FE6C494860AE
:102580006949488803F0F2FE6A494860684803F0E8
:10259000EEF8054603F0EFFE62498861654803F0F6
:1025A000E6F8054603F0E7FE5F4988615D48006A8A
:1025B000C0EB401101EB801000F5FA7059498969B0
:1025C000401A5849C8615848006AC0EB401101EBF5
:1025D000801000F5FA7054498969401A5249C8615F
:1025E0005048C069B0F52F7F03DD4FF42F704D497F
:1025F000C8614C48C069B0F5967F03DA4FF4967015
:102600004849C8614848C069B0F52F7F03DD4FF4E1
:102610002F704549C8614448C069B0F5967F03DA18
:102620004FF496704049C8613E48808B01B2282221
:10263000012002F0F5FF3C48808B01B228220220E5
:1026400002F0EEFF41F28830844200D907E03748BB
:102650000078062802D103F051FA00E081E700BFBC
:102660001023414A083A06211E2003F021FB03F003
:1026700043F82C48C0892B49888048802A48C08963
:102680002949888048802749488803F06FFE2849F7
:1026900048602549488803F069FE26494860214979
:1026A000888803F063FE224908601F49888803F088
:1026B0005DFE204908600024A0E0641CB4F52F7F73
:1026C00002D100201A49086203F048FC15494888E5
:1026D00003F04CFE164948601349488803F046FE53
:1026E00014494860124803F042F8054603F043FEDF
:1026F0000C4988610F4803F03AF8054603F03BFEA9
:10270000094988610748006AC0EB001000EB4000EF
:102710004FF4FA7101EB400002498969401A0149FE
:10272000C86123E000000020280000208805002068
:1027300090080020B40800204974656D2033000023
:102740004D6F76652066726F6D203120746F203476
:102750002C73746179203273000000007468656E18
:10276000203420746F2035003C0A0008FE48006ABF
:10277000C0EB001000EB40004FF4FA7101EB400099
:10278000F9498969401AF849C861F848C069B0F543
:102790002F7F03DD4FF42F70F449C861F348C069FF
:1027A000B0F5967F03DA4FF49670F049C861EE48B1
:1027B000C069B0F52F7F03DD4FF42F70EA49C8617F
:1027C000E948C069B0F5967F03DA4FF49670E649A0
:1027D000C861E648808B01B22822012002F020FF68
:1027E000E148808B01B22822022002F019FFE04864
:1027F0000078062802D103F081F900E05DE700BF10
:102800004FF4FA721146012002F00AFF4FF4FA72F7
:102810001146022002F004FF70BD70B503F06EF99E
:102820001023D4A20021084603F042FA1023D3A2B9
:102830000221002003F03CFA02F05EFFCB48C08981
:10284000CA498880C848C089C7498880C7498888DC
:1028500003F08CFDCE490860C349888803F086FDEB
:10286000CC490860CC484861C94948610020BF494B
:102870000862BD4908628EE003F070FBBB494888DE
:1028800003F074FDC2494860B749488803F06EFD03
:10289000C0494860BE4802F06AFF064603F06BFD7F
:1028A000B2498861BB4802F062FF064603F063FD4F
:1028B000AD498861AD49086A002801DB014600E0A6
:1028C0004142032905DAA948006AC0EB00108400E0
:1028D00005E0A648006A00EB001000EB8004A24966
:1028E000086A002801DB014600E04142032905DABD
:1028F0009D48006AC0EB0010850005E09A48006A18
:1029000000EB001000EB800504F5FA709749896927
:10291000401A9649C86105F5FA7093498969401AC9
:102920009149C8619148C069B0F52F7F03DD4FF42C
:102930002F708E49C8618D48C069B0F5967F03DA63
:102940004FF496708949C8618748C069B0F52F7FF8
:1029500003DD4FF42F708449C8618348C069B0F526
:10296000967F03DA4FF496707F49C8617F48808B69
:1029700001B22822012002F053FE7B48808B01B275
:102980002822022002F04CFE79480078062802D165
:1029900003F0B4F800E06FE700BF4FF4FA7211469D
:1029A000012002F03DFE4FF4FA721146022002F0BF
:1029B00037FE70BD10B503F0A1F8102377A20021F7
:1029C000084603F075F91023764A0221002003F02F
:1029D0006FF902F091FE6548008964498880624879
:1029E0000089614988806149888803F0BFFC684993
:1029F00008605D49888803F0B9FC664908600020DA
:102A00005A4908625849086281E003F0A7FA584819
:102A10000078042874D171E003F0A0FA5349488883
:102A200003F0A4FC5A4948604F49488803F09EFCD3
:102A300058494860564802F09AFE044603F09BFC51
:102A40004A498861534802F092FE044603F093FC21
:102A5000454988614548006AC0EB00104FF4FA719F
:102A600001EB800041498969401A4049C8613E48EC
:102A7000006AC0EB00104FF4FA7101EB80003A4994
:102A80008969401A3849C8613848C069B0F52F7F54
:102A900003DD4FF42F703549C8613448C069B0F583
:102AA000967F03DA4FF496703049C8612E48C069AA
:102AB000B0F52F7F03DD4FF42F702B49C8612A48F2
:102AC000C069B0F5967F03DA4FF496702649C86165
:102AD0002648808B01B22822012002F0A1FD224865
:102AE000808B01B22822022002F09AFD2048007853
:102AF000062803D103F002F801E001E08CE700BFF3
:102B00001B480078062802D102F0F8FF00E07CE7BD
:102B100000BF4FF4FA721146012002F081FD4FF41C
:102B2000FA721146022002F07BFD10BD002401253F
:102B30004FF4FA721146012002F072FD4FF4FA725E
:102B40001146022002F06CFD02F0D8FF102316A2FD
:102B500000210A2003F0ACF84FF4FA72114601206C
:102B600002F05EFD26E000002800002000000020AA
:102B7000880500204974656D203200004D6F766530
:102B80002066726F6D203120746F203500000000C8
:102B900090080020B40800204260653B4974656DD0
:102BA00020310000080A000853656C6574206974C0
:102BB000656D00004FF4FA721146022002F030FDFC
:102BC0005DE003F0CBF9F7480078052803D0F5481D
:102BD0000078072804D1002C02DD601EC4B2012554
:102BE000F0480078082803D0EE480078092804D17E
:102BF0000A2C02DA601CC4B20125012D0AD100257D
:102C000004EB8400E84901EB8002102304210A2030
:102C100003F04EF8E3480078042830D10A2C24D27F
:102C2000DFE804F005080B0E1114171A1D20FDF73C
:102C300058FD1BE0FDF762FB18E0FFF7BBFE15E057
:102C4000FFF7EBFD12E0FFF74BFC0FE0FFF780F919
:102C50000CE0FEF7DAFD09E0FEF782F906E0FDF789
:102C6000D6FD03E0FDF79BFD00E000BF00BF01259E
:102C70001023AFF2CC0200210A2003F019F8A0E7DC
:102C800000F0E1FC00F060FD4FF4A06000F09AFF5E
:102C90004FF4E13000F0ECFD4FF4E13000F06EFE57
:102CA0004FF4E13000F0F2FE03F01CF902F024FDD5
:102CB00003F08EF802F022FF4FF461614FF41670BA
:102CC00002F0F9FDFFF732FF70B5002402F016FFA5
:102CD0001023B64A0021084602F0EAFF1023B44A46
:102CE0000221002002F0E4FF1023B2A20221002002
:102CF00002F0DEFF02F000FDB2480089B149888091
:102D00004880B1480089B04988804880AD494888EA
:102D100003F02CFBAD494860AB49488803F026FB23
:102D2000AB494860A749888803F020FBA7490860A1
:102D3000A549888803F01AFBA54908601023A54A15
:102D400006211E2002F0B4FF76E0641C03F006F9B1
:102D50009C49488803F00AFB9C4948609A49488886
:102D600003F004FB9A494860984802F000FD0546CC
:102D700003F001FB93498861954802F0F8FC054691
:102D800003F0F9FA904988618E48006AC0EB0010A0
:102D90004FF4FA7101EB80008A498969401A894928
:102DA000C8618948006AC0EB00104FF4FA7101EB6A
:102DB000800085498969401A8349C8618148C06992
:102DC000B0F52F7F03DD4FF42F707E49C8617D4839
:102DD000C069B0F5967F03DA4FF496707949C861FF
:102DE0007948C069B0F52F7F03DD4FF42F70764925
:102DF000C8617548C069B0F5967F03DA4FF49670E4
:102E00007149C8616F48808B01B22822012002F00D
:102E100007FC6D48808B01B22822022002F000FCE2
:102E200040F6C410844200D907E05E4800780628C6
:102E300002D102F063FE00E087E700BF1023654A7D
:102E4000083A06211E2002F033FF02F055FC5D49CE
:102E500009895C4A128A881800EBD071C1F34F01CE
:102E6000584A9180518058490989574A128A8818CE
:102E700000EBD071C1F34F01534A91805180514909
:102E8000488803F073FA514948604F49488803F075
:102E90006DFA4F4948604B49888803F067FA4B49FF
:102EA00008604949888803F061FA494908600024AC
:102EB00076E0641C03F052F84249488803F056FA61
:102EC000424948604049488803F050FA4049486008
:102ED0003E4802F04CFC054603F04DFA3949886142
:102EE0003B4802F044FC054603F045FA3649886148
:102EF0003448006AC0EB00104FF4FA7101EB800017
:102F000030498969401A2F49C8612F48006AC0EBCF
:102F100000104FF4FA7101EB80002B498969401AC7
:102F20002949C8612748C069B0F52F7F03DD4FF4F8
:102F30002F702449C8612348C069B0F5967F03DA31
:102F40004FF496701F49C8611F48C069B0F52F7FC4
:102F500003DD4FF42F701C49C8611B48C069B0F5F0
:102F6000967F03DA4FF496701749C8611548808B35
:102F700001B22822012002F053FB1348808B01B2DA
:102F80002822022002F04CFB40F6C410844200D9F3
:102F900022E004480078062802D102F0AFFD1BE0D1
:102FA00087E700008805002053000020B01A0008C1
:102FB0007C12000841203E2042203E2043203E203B
:102FC000440000000000002028000020900800209D
:102FD000B40800203C0A000800BF1023F94A06216B
:102FE0001E2002F065FE02F087FBF748008AF649D2
:102FF00088804880F548008AF44988804880F249F2
:10300000488803F0B3F9F2494860F049488803F072
:10301000ADF9F0494860EC49888803F0A7F9EC491C
:103020000860EA49888803F0A1F9EA4908600024A9
:1030300076E0641C02F092FFE349488803F096F9B9
:10304000E3494860E149488803F090F9E149486064
:10305000DF4802F08CFB054603F08DF9DA49886100
:10306000DC4802F084FB054603F085F9D749886106
:10307000D548006A00EB80004FF4FA7101EB0010B4
:10308000D1498969401AD049C861D048006A00EB2B
:1030900080004FF4FA7101EB0010CC498969401AA5
:1030A000CA49C861C848C069B0F52F7F03DD4FF435
:1030B0002F70C549C861C448C069B0F5967F03DA6E
:1030C0004FF49670C049C861C048C069B0F52F7F01
:1030D00003DD4FF42F70BD49C861BC48C069B0F52D
:1030E000967F03DA4FF49670B849C861B648808B72
:1030F00001B22822012002F093FAB448808B01B279
:103100002822022002F08CFA40F6B830844200D91E
:1031100007E0B1480078062802D102F0EFFC00E099
:1031200087E700BF1023AD4A06211E2002F0C0FD34
:1031300002F0E2FAA449C98AA34A128A881800EB6D
:10314000D071C1F34F01A04A918051809F49C98A33
:103150009E4A128A881800EBD071C1F34F019B4A36
:10316000918051809849488803F000F99849486057
:103170009649488803F0FAF8964948609249888849
:1031800003F0F4F8924908609049888803F0EEF85B
:1031900090490860002476E0641C02F0DFFE8A4952
:1031A000488803F0E3F88A4948608849488803F072
:1031B000DDF888494860864802F0D9FA054603F0F0
:1031C000DAF881498861834802F0D1FA054603F0B4
:1031D000D2F87E4988617C48006A00EB80004FF499
:1031E000FA7101EB001078498969401A7649C86183
:1031F0007648006A00EB80004FF4FA7101EB001092
:1032000072498969401A7149C8616F48C069B0F54F
:103210002F7F03DD4FF42F706B49C8616A48C06986
:10322000B0F5967F03DA4FF496706749C861674836
:10323000C069B0F52F7F03DD4FF42F706349C8617B
:103240006248C069B0F5967F03DA4FF496705F4923
:10325000C8615D48808B01B22822012002F0E0F9AC
:103260005A48808B01B22822022002F0D9F940F698
:10327000C410844200D907E057480078062802D1DC
:1032800002F03CFC00E087E700BF10234D4A083203
:1032900006211E2002F00CFD02F02EFA4A48C08AD8
:1032A0004949888048804948C08A48498880488080
:1032B0004549488803F05AF84549486043494888D9
:1032C00003F054F8434948603F49888803F04EF8BA
:1032D0003F4908603D49888803F048F83D49086047
:1032E0007EE002F03BFE3849488803F03FF8384959
:1032F00048603649488803F039F836494860344810
:1033000002F035FA054603F036F82F498861314856
:1033100002F02DFA054603F02EF82C4988612A4860
:10332000006AC0EB001000EB800000F5FA7026493F
:103330008969401A2449C8612448006AC0EB00101A
:1033400000EB800000F5FA7020498969401A1F4996
:10335000C8611D48C069B0F52F7F03DD4FF42F70A1
:103360001949C8611848C069B0F5967F03DA4FF46F
:1033700096701549C8611548C069B0F52F7F03DD07
:103380004FF42F701149C8611048C069B0F5967F9D
:1033900003DA4FF496700D49C8610B48808B01B277
:1033A0002822012002F03CF90848808B01B2282233
:1033B000022002F035F908480078062810D102F002
:1033C0009DFB0EE0500E00080000002028000020A9
:1033D00090080020B40800208805002098160008F6
:1033E0007FE700BF4FF4FA721146012002F018F98E
:1033F0004FF4FA721146022002F012F970BD00007B
:10340000704700BFFEE700BFFEE700BFFEE700BF5A
:10341000FEE770B50121880701F0BBFED8B101219C
:10342000880701F0C7FE4448408843490988451A87
:103430004248408841490988441A0F2D04DA15F1A1
:103440000F0F01DD3C4805620F2C04DA14F10F0F59
:1034500001DD3A48046270BD10B50121384801F021
:1034600098FE18B10121364801F0A4FE10BD10B538
:1034700040F22551334802F061F850B1314801F073
:10348000DDFFC4B230490868411C2F4A11602F4942
:103490000C5410BD10B540F225512D4802F04EF8E5
:1034A00050B12B4801F0CAFFC4B22A490868411C38
:1034B000284A116028490C5410BD10B540F225511E
:1034C000264802F03BF8A8B3244801F0B7FFC4B285
:1034D00023490868411C224A116022490C54FE2CE1
:1034E00028D110460068072824D310460068C01F62
:1034F000085CEF281ED110460068801F085C0D286C
:1035000018D10D4840880C4908800C4840880B4968
:10351000088010460068001F1249085C0649488070
:1035200010460068801E0F49085C0449488000204E
:103530001146086010BD0000000000202800002097
:103540000004004000380140E80100209005002000
:1035500000440040EC01002090060020004800409C
:10356000F0010020900700200CB500200190009091
:103570006C48006840F480306A49086000BF6948C0
:10358000006800F4003000900198401C0190009801
:1035900018B90198B0F5A06FF1D16248006800F445
:1035A000003010B10120009001E000200090009850
:1035B000012843D15C48006840F010005A49086077
:1035C0000846006820F0030008600846006840F0E4
:1035D0000200086053484068524948600846406805
:1035E00048600846406840F480604860084640688B
:1035F00020F47C1048600846406840F4E8104860B9
:103600000846006840F08070086000BF45480068C8
:1036100000F000700028F9D04248406820F0030014
:10362000404948600846406840F00200486000BFDA
:103630003C48406800F00C000828F9D10CBD10B5DA
:10364000FFF792FF10BD10B53648006840F001004A
:1036500034490860084640683449084031494860A8
:1036600008460068324908402E490860084600684C
:1036700020F4802008600846406820F4FE0048607E
:103680004FF41F008860FFF7DAFF4FF00060294910
:10369000086010BD10B5002100200022214B5B689E
:1036A00003F00C0121B1042906D0082928D107E034
:1036B000214B224C236027E01F4B204C236023E04A
:1036C000184B5B6803F47010164B5B6803F4803290
:1036D000022303EB904022B9194B4343174C23605C
:1036E0000DE0104B5B6803F4003323B1144B4343EC
:1036F000124C236003E0104B4343104C236003E063
:103700000D4B0E4C236000BF00BF064B5B68C3F33C
:1037100003130C4CE15C094B1B68CB40074C236046
:1037200010BD000000100240002002400000FFF821
:10373000FFFFF6FE08ED00E000127A00D001002045
:1037400000093D00D401002010B56FF0040000F026
:1037500088FA434800684349B0FBF1F042490870D9
:103760000846007800EB4001C1EBC0104FF6FF7136
:1037700001EAC0003D49088010BD01463A4A12786E
:103780004A434FF0E0235A6100229A611A461269B7
:1037900042F001021A6100BF4FF0E022106900F010
:1037A00001021AB100F48032002AF5D04FF0E02275
:1037B000126922F001024FF0E0231A6100229A619F
:1037C00070470146294A12884A434FF0E0235A6164
:1037D00000229A611A46126942F001021A6100BF82
:1037E0004FF0E022106900F001021AB100F48032BB
:1037F000002AF5D04FF0E022126922F001024FF0CA
:10380000E0231A6100229A61704770B504464FF4B4
:103810007A7094FBF0F086B24FF47A7094FBF0F17A
:1038200000FB114085B203E04FF47A70FFF7C9FF47
:10383000301EA6F101018EB2F6D115B12846FFF770
:10384000C0FF70BD10B5044603E04FF47A70FFF777
:10385000B8FF201EA4F101018CB2F6D110BD00000A
:10386000D001002000127A00E4010020E6010020CF
:1038700010B586B00446012144F2040000F02CFD8E
:103880004FF40070ADF8140018208DF817000320D5
:103890008DF8160005A9354800F062FA4FF48060F3
:1038A000ADF8140004208DF8170005A92F4800F08A
:1038B00057FA01940020ADF80800ADF80A00ADF801
:1038C0000C00ADF810000C20ADF80E0001A928483E
:1038D00001F0B7FC0121264801F03FFD012240F232
:1038E0002551234801F045FD25208DF800000120D9
:1038F0008DF801008DF802008DF80300684600F095
:1039000066F906B010BD10B54FF48071194802F089
:1039100026FC00201849086010BD2DE9F04107463B
:103920000C46154600260DE014F8011B384601F040
:1039300081FD00BF4021384601F0EAFD0028F9D0A2
:10394000701CC6B2AE42EFDBBDE8F08170B5044634
:103950000D46E1B2064801F06DFD00BF802104482C
:1039600001F0D6FD0028F9D0204670BD00080140C6
:103970000038014090050020E801002010B586B015
:1039800004460121042000F0A7FC0121480400F0B6
:10399000B0FC0420ADF8140018208DF817000320A7
:1039A0008DF8160005A9354800F0DAF90820ADF8C1
:1039B000140004208DF8170005A9304800F0D0F954
:1039C00001940020ADF80800ADF80A00ADF80C0035
:1039D000ADF810000C20ADF80E0001A9284801F048
:1039E00030FC0121264801F0B8FC012240F22551AB
:1039F000234801F0BEFC26208DF8000002208DF83F
:103A0000010001208DF802008DF80300684600F0E7
:103A1000DEF806B010BD10B54FF48071194802F001
:103A20009EFB00201849086010BD2DE9F0410746B3
:103A30000C4615464021384601F077FD00260DE082
:103A400014F8011B384601F0F5FC00BF4021384650
:103A500001F05EFD0028F9D0701CC6B2AE42EFDB6B
:103A6000BDE8F08170B505460C4625B122460549F2
:103A7000284602F05BFBFFF7CEFF70BD0008014057
:103A80000044004090060020EC01002010B586B0F4
:103A900004460121082000F01FFC0121880400F0E9
:103AA00028FC4FF48060ADF8140003208DF8160058
:103AB00018208DF8170005A9354800F051F94FF48A
:103AC0000060ADF8140004208DF8170005A93048F7
:103AD00000F046F901940020ADF80800ADF80A00A6
:103AE000ADF80C00ADF810000C20ADF80E0001A9E7
:103AF000284801F0A6FB0121264801F02EFC0122F6
:103B000040F22551234801F034FC27208DF80000B5
:103B100003208DF8010001208DF802008DF80300CC
:103B2000684600F054F806B010BD10B54FF480712F
:103B3000194802F014FB00201849086010BD2DE957
:103B4000F04107460C4615464021384601F0EDFC91
:103B500000260DE014F8011B384601F06BFC00BF95
:103B60004021384601F0D4FC0028F9D0701CC6B2C0
:103B7000AE42EFDBBDE8F08170B505460C4625B1DD
:103B800022460549284602F0D1FAFFF7CEFF70BD64
:103B9000000C01400048004090070020F001002088
:103BA0000648804706480047FEE7FEE7FEE7FEE7D7
:103BB000FEE7FEE7FEE7FEE7FEE7FEE74736000822
:103BC0003101000831490143314A1160704770B535
:103BD000002100230F22C47804B32D4C246804F480
:103BE000E064C4F5E064210AC1F10403CA404478EA
:103BF00004FA03F18478144021430901254C067826
:103C0000A155047804F01F050124AC4005786D111E
:103C1000AD0005F1E025C5F8004109E0047804F0A5
:103C20001F050124AC401C4D0678761145F826404E
:103C300070BD1A4A0A400243154B1B1F1A60704799
:103C400039B1134A121D12680243114B1B1D1A6031
:103C500006E00F4A121D126882430D4B1B1D1A60AD
:103C60007047042808D14FF0E021096941F00401B0
:103C70004FF0E022116107E04FF0E021096921F0E7
:103C800004014FF0E0221161704700000000FA05C6
:103C90000CED00E000E400E080E100E080FFFF1FA9
:103CA00010B50446CC48844208D10121042000F01C
:103CB0002DFB0021042000F029FB46E0C748844288
:103CC00008D10121082000F021FB0021082000F08C
:103CD0001DFB3AE0C248844208D10121102000F0C7
:103CE00015FB0021102000F011FB2EE0BD4884429E
:103CF00008D10121202000F009FB0021202000F044
:103D000005FB22E0B848844208D10121402000F0A0
:103D1000FDFA0021402000F0F9FA16E0B348844291
:103D200008D10121802000F0F1FA0021802000F06C
:103D3000EDFA0AE0AE48844207D10121801500F077
:103D4000E5FA0021A01500F0E1FA10BD10B501213F
:103D5000084600F0DBFA0021012000F0D7FA10BD80
:103D60002DE9F04102460025002600200023002412
:103D7000002791F803C00CF00F0591F803C00CF078
:103D8000100CBCF1000F03D091F802C04CEA0505FD
:103D900091F800C0BCF1000F31D0146800202BE076
:103DA0004FF0010C0CFA00F3B1F800C00CEA030666
:103DB0009E4220D183004FF00F0C0CFA03F7BC4356
:103DC00005FA03FC4CEA040491F803C0BCF1280F87
:103DD00006D14FF0010C0CFA00FCC2F814C00AE046
:103DE00091F803C0BCF1480F05D14FF0010C0CFA5B
:103DF00000FCC2F810C0401C0828D1D31460B1F8F0
:103E000000C0BCF1FF0F34DD546800202EE000F14B
:103E1000080C4FF0010808FA0CF3B1F800C00CEAE6
:103E200003069E4221D183004FF00F0C0CFA03F7DA
:103E3000BC4305FA03FC4CEA040491F803C0BCF14E
:103E4000280F05D100F1080C08FA0CF8C2F814800C
:103E500091F803C0BCF1480F07D100F1080C4FF0F6
:103E6000010808FA0CF8C2F81080401C0828CED3CC
:103E70005460BDE8F0814FF6FF710180022181702E
:103E80000421C17070470246002093680B400BB1BB
:103E9000012000E0002070470146886880B270472A
:103EA00002460020D3680B400BB1012000E0002047
:103EB00070470146C86880B2704701617047416130
:103EC00070470AB1016100E041617047C16070470D
:103ED0004FF480320A438261816182618269826922
:103EE000704702460020434B18684FF68073184015
:103EF00040EA021008433F4B186070473E49C861D2
:103F00007047F0B50A46002300240021002500F088
:103F10000046B6F1004F02D1364EF16901E0354E50
:103F20007168C0F3034583B200F44016B6F5401F34
:103F300008D121F070612F4E766826F070662D4F03
:103F40007E6012E000F48016B6F5801F06D10326CD
:103F500006FA05F4A14341F0706106E0460D360112
:103F600003FA06F6B14341F0706122B1460D360105
:103F700003FA06F6314300F00046B6F1004F02D1D5
:103F80001C4EF16101E01B4E7160F0BD30B50022A6
:103F90008B071C0F0F2303FA04F2164B08338C1007
:103FA00053F824309343134C08348D1044F82530D3
:103FB00023468C1053F824308C07240F00FA04F4A5
:103FC00023430C4C08348D1044F8253030BD0A4989
:103FD000DC3108607047000000080140000C01401F
:103FE000001001400014014000180140001C014075
:103FF000002001400000014000002042DF4800682E
:1040000040F00100DD49086008464068DC4908408E
:10401000DA49486008460068DA490840D74908602C
:104020000846006820F4802008600846406820F4B4
:10403000FE0048604FF41F0088607047CF49096850
:1040400021F48031CD4A11601146096821F48021A4
:104050001160B0F5803F03D0B0F5802F0ED106E09F
:10406000C649096841F48031C44A116007E0C34978
:10407000096841F4A021C14A116000E000BF00BFFF
:10408000704710B501460022002300204A11012A82
:1040900002D1BA4C236806E0022A02D1B74C236A47
:1040A00001E0B64C636A01F01F02012494401C40F9
:1040B0000CB1012000E0002010BD38B500200090B8
:1040C0000024002500BF3120FFF7DBFF05460098E4
:1040D000401C00900098B0F5A06F01D0002DF2D0E8
:1040E0003120FFF7CEFF08B1012400E00024204674
:1040F00038BD01460020A14A106820F0F80040EACF
:10410000C10010607047A049086070470246002057
:104110009A4B586820F47C1042EA01031843974BED
:104120005860704798490866704701460020934AD6
:10413000506820F003000843506070478F48406883
:1041400000F00C007047014600208C4A506820F0B7
:10415000F00008435060704701460020874A5068CD
:1041600020F4E06008435060704701460020834A15
:10417000506820F4605040EAC1005060704729B197
:104180007E4A527A02437D4B5A7204E07B4A527A4D
:1041900082437A4B5A7270477B49D8310860704726
:1041A00001460020754A506820F4404008435060A2
:1041B00070470021714A20321170704A82F8201035
:1041C000012802D004280AD104E001216B4A2032E0
:1041D000117005E00521694A2032117000E000BF2E
:1041E00000BF70476949086070476449096A014324
:1041F000624A11627047654944390860704730B5BA
:1042000000210022002400235C4D6D6805F00C01A4
:1042100021B1042905D0082923D105E05C4D0560B2
:1042200022E05B4D05601FE0544D6D6805F470128F
:10423000524D6D6805F48034022505EB92421CB99D
:10424000544D554305600BE04C4D6D6805F4003549
:104250001DB1504D5543056002E04D4D554305607D
:1042600002E04B4D056000BF00BF444D6D6805F096
:10427000F0010909484D6B5C0568DD4045603F4D24
:104280006D6805F4E061090A434D6B5C4568DD40EB
:1042900085603A4D6D6805F46051C90A3E4D6B5C0E
:1042A0004568DD40C560354D6D6805F44041890BBA
:1042B0003A4D6B5CC568B5FBF3F5056130BD29B1BE
:1042C0002E4A526902432D4B5A6104E02B4A52692F
:1042D00082432A4B5A61704729B1284A92690243A6
:1042E000264B9A6104E0254A92698243234B9A61E6
:1042F000704729B1214AD2690243204BDA6104E0B8
:104300001E4AD26982431D4BDA61704729B11B4AAC
:10431000D2680243194BDA6004E0184AD26882433B
:10432000164BDA60704729B1144A12690243134BE5
:104330001A6104E0114A12698243104B1A617047F6
:1043400012494039086070470F49C86470470B49EB
:10435000C87170470948406A40F080700749486258
:10436000704701460020054A92680A400AB10120C0
:1043700000E0002070470149887270470010024039
:104380000000FFF8FFFFF6FE0000424280044242B8
:1043900000127A0000093D00F40100200402002010
:1043A00010B50446FE48844208D10121C014FFF72D
:1043B000ADFF0021E014FFF7A9FFC4E0B4F1804F86
:1043C00008D101210846FFF7AEFF00210120FFF7C9
:1043D000AAFFB8E0F348844208D101210220FFF788
:1043E000A2FF00210220FFF79EFFACE0EE488442CE
:1043F00008D101210420FFF796FF00210420FFF7D8
:1044000092FFA0E0E948844208D101210820FFF78B
:104410008AFF00210820FFF786FF94E0E4488442E9
:1044200008D101211020FFF77EFF00211020FFF7A7
:104430007AFF88E0DF48844208D101212020FFF77D
:1044400072FF00212020FFF76EFF7CE0DA488442F3
:1044500008D101214014FFF759FF00216014FFF734
:1044600055FF70E0D548844209D10121C804FFF707
:104470004DFF00214FF40020FFF748FF63E0D048D4
:10448000844209D101210805FFF740FF00214FF4C4
:104490008010FFF73BFF56E0CA48844209D1012152
:1044A0004805FFF733FF00214FF40010FFF72EFF00
:1044B00049E0C548844208D101214020FFF733FF7D
:1044C00000214020FFF72FFF3DE0C048844208D183
:1044D00001218020FFF727FF00218020FFF723FF25
:1044E00031E0BB48844208D101218015FFF71BFF52
:1044F0000021A015FFF717FF25E0B648844209D137
:1045000001210804FFF702FF00214FF48030FFF77C
:10451000FDFE18E0B048844209D101214804FFF7AC
:10452000F5FE00214FF40030FFF7F0FE0BE0AB4842
:10453000844208D101218804FFF7E8FE00214FF4EE
:104540008020FFF7E3FE10BD00220288944B9842C2
:104550000ED0994B98420BD0B0F1804F08D0914BC0
:10456000984205D0904B984202D0904B984204D18B
:104570004FF68F731A404B881A438D4B984207D0E1
:104580008C4B984204D04FF6FF431A40CB881A4315
:1045900002808B8883850B880385814B98420BD0E2
:1045A000854B984208D08B4B984205D08A4B984255
:1045B00002D08A4B984201D10B7A03860123838271
:1045C000704770B5002400220023058C4FF6FE765C
:1045D00035400584028C8388048B4FF68F752C4000
:1045E000B51E2C400D882C43751E2A400D892A4388
:1045F0004D882A436A4DA8420BD06F4DA84208D07F
:10460000744DA84205D0744DA84202D0734DA84203
:1046100013D14FF6F7752A404D892A434FF6FB75A3
:104620002A408D882A434FF6FF652B404FF6FF55F1
:104630002B408D892B43CD892B4383800483CD88E8
:104640008586028470BD70B5002400220023058C8D
:104650004FF6EF7635400584028C8388048B48F64C
:10466000FF752C404FF6FF452C400D884FF6FF7626
:1046700006EA05252C434FF6DF752A400D8906EA28
:1046800005152A434D8806EA05152A43444DA842DC
:1046900002D0494DA8421DD14FF67F752A404D8961
:1046A0004FF6FF7606EA05152A434FF6BF752A40F6
:1046B0008D8806EA05152A434FF6FF352B404FF249
:1046C000FF752B408D8906EA85052B43CD8906EAC7
:1046D00085052B4383800483CD880587028470BDC4
:1046E00070B5002400220023058C4FF6FF6635408C
:1046F0000584028C8388848B4FF68F752C404FF68F
:10470000FC752C400D882C434FF6FF552A400D892F
:104710004FF6FF7606EA05252A434D8806EA052569
:104720002A431F4DA84202D0234DA8421DD14FF26B
:10473000FF752A404D894FF6FF7606EA05252A4384
:104740004FF6FF352A408D8806EA05252A434EF6A6
:10475000FF752B404DF6FF752B408D8906EA051538
:104760002B43CD8906EA05152B4383808483CD88AE
:104770008587028470BD70B5002200230024058C5B
:104780004EF6FF7635400584038C8488828B48F68C
:10479000FF752A404FF6FF452A400D8820E00000B3
:1047A000002C01400004004000080040000C0040C4
:1047B000001000400014004000340140004C014053
:1047C000005001400054014000180040001C00400F
:1047D00000200040004001400044014000480140EA
:1047E0004FF6FF7606EA05252A434DF6FF752B4066
:1047F0000D8906EA05352B434D8806EA05352B431E
:10480000FA4DA84202D0FA4DA84208D14BF6FF75E6
:104810002C408D894FF6FF7606EA85152C4384805F
:104820008283CD88A0F84050038470BD828B4FF204
:10483000FF331A408283828B4FF6FF7303EA012312
:104840001A4382837047F0B50C46154600220021BA
:104850000026078C4EF6FF7C07EA0C070784828B44
:10486000018C4FF6FF7707EA043640F6FF473A40DF
:104870004FF6FF7707EA05273A434FF6FF7707EA37
:1048800003373A43D94FB8420ED0D94FB8420BD074
:10489000B0F1804F08D0D74FB84205D0D64FB842BC
:1048A00002D0D64FB84206D14DF6FF77394046F4D4
:1048B0008057394305E047F6FF57394044F48057A5
:1048C000394382830184F0BD828B4FF6F3731A4023
:1048D0008283828B0A4382837047F0B50C4615466B
:1048E000002200210026078C4FF6FF6C07EA0C0718
:1048F0000784828B018C4FF6FF7707EA04264FF678
:104900000C773A404FF6FF7707EA03172F433A43F5
:10491000B64FB8420ED0B64FB8420BD0B0F1804F70
:1049200008D0B44FB84205D0B34FB84202D0B34F0D
:10493000B84206D14FF6FF57394046F480773943E5
:1049400005E04FF2FF57394044F4807739438283C2
:104950000184F0BD028B4FF2FF331A400283028BB9
:104960004FF6FF7303EA01231A4302837047F0B541
:104970000C461546002200210026078C4FF6EF7CDE
:1049800007EA0C070784028B018C4FF6FF7707EAD2
:10499000041640F6FF473A404FF6FF7707EA033721
:1049A0003A434FF6FF7707EA05273A438F4FB8425D
:1049B0000ED08F4FB8420BD0B0F1804F08D08D4F42
:1049C000B84205D08C4FB84202D08C4FB84206D1C5
:1049D0004FF6DF77394046F01007394305E04FF6D0
:1049E0005F77394044F01007394302830184F0BDFA
:1049F000028B4FF6F3731A400283028B0A43028341
:104A00007047F0B50C46154600220021068C4FF683
:104A1000FE773E400684028B018C4FF60C763240C6
:104A20007E1C06EA03162E433243704EB0420ED06F
:104A30006F4EB0420BD0B0F1804F08D06D4EB042F7
:104A400005D06D4EB04202D06C4EB04206D14FF64A
:104A5000FD76314044F00106314305E04FF6F5762E
:104A6000314044F00106314302830184F0BD70B54A
:104A700005460C465D4885420ED05D4885420BD008
:104A8000B5F1804F08D05B48854205D05A48854231
:104A900002D05A48854200D100E000BF208850B9BA
:104AA0002389A28861882846FFF7ABFFE188284662
:104AB000FFF79EFF25E0208804280AD12389A288D9
:104AC00061882846FFF753FFE1882846FFF742FF39
:104AD00017E0208808280AD12389A28861882846FF
:104AE000FFF7FBFEE1882846FFF7EEFE09E0238989
:104AF000A28861882846FFF7A6FEE1882846FFF7CE
:104B000095FE70BD2DE9F04105460C4600260127B3
:104B1000608808B9022600E00026A088012801D19B
:104B2000022700E001272088A0B92389A288618894
:104B30002846FFF766FFE1882846FFF759FF2389DB
:104B40003A4631462846FFF712FFE1882846FFF72C
:104B500001FF13E02389A28861882846FFF707FF39
:104B6000E1882846FFF7F6FE23893A463146284673
:104B7000FFF747FFE1882846FFF73AFFBDE8F081DD
:104B80000A884B881A438B881A43CB881A430B89AF
:104B90001A434B891A438B891A43A0F84420704763
:104BA0004FF6FF71818000210180C1804180017238
:104BB00070470021018041808180C1800181418155
:104BC0008181C18170470021018041800121818064
:104BD0000021C180018170470021018041808180D6
:104BE000C18001814181818170470000002C01401A
:104BF000003401400004004000080040000C004068
:104C000021B1028842F00102028004E002884FF6DE
:104C1000FE731A400280704731B1B0F8442042F46C
:104C20000042A0F8442005E0B0F84420C2F30E0290
:104C3000A0F8442070471AB183890B43838102E0B6
:104C400083898B43838170478182704741EA0203E5
:104C5000A0F8483070471AB183890B43838102E082
:104C600083898B438381704701894FF6F872114025
:104C7000018170470A46002101894FF68F73194060
:104C800011430181704730B504460D462946204640
:104C9000FFF7F0FF208940F00700208130BD2DE9AB
:104CA000F04104460D4616461F46602D06D13B4690
:104CB000012231462046FFF75AFE05E03B4601221D
:104CC00031462046FFF79DFE29462046FFF7D2FFDA
:104CD000208940F007002081BDE8F08130B50C4606
:104CE00000210189C9B24FF6FF7505EA0325154376
:104CF00025432943018130BD2DE9F04105460E468B
:104D000017469846002443463A4631462846FFF760
:104D1000E5FF2C894FF6F870044044F007044FF685
:104D20008F70044044F070042C81BDE8F081F0B530
:104D300004460D4616461F463B4632462946204647
:104D4000FFF7CCFF208940F480402081F0BD018531
:104D5000828270470A46002101884FF68F731940FE
:104D6000114301807047F0B50C4615461E460021E0
:104D7000002200230189028B038C4FF6F87739401B
:104D800021434FF6FC473A4040F201173A434FF6B1
:104D9000DD773B404FF6FF7707EA06172F433B438B
:104DA000018102830384F0BD0A460021018B4FF686
:104DB0008F7319401143018370470A460021018B0C
:104DC00048F6FF7319404FF6FF7303EA02231943B5
:104DD000018370470A460021818B4FF68F7319407B
:104DE0001143818370470A460021818B48F6FF7387
:104DF00019404FF6FF7303EA02231943818370477A
:104E000021B1028842F08002028004E002884FF65D
:104E10007F731A400280704721B1828842F00402F9
:104E2000828004E082884FF6FB731A4082807047CC
:104E300021B1828842F00802828004E082884FF625
:104E4000F7731A408280704721B1828842F00102D4
:104E5000828004E082884FF6FE731A408280704799
:104E60000A460021018B4FF6F77319401143018365
:104E700070470A460021018B4FF2FF7319404FF62D
:104E8000FF7303EA02231943018370470A46002196
:104E9000818B4FF6F77319401143818370470A469F
:104EA0000021818B4FF2FF7319404FF6FF7303EA25
:104EB00002231943818370470A460021018B4FF674
:104EC000FB7319401143018370470A460021018B8F
:104ED0004FF6FF3319404FF6FF7303EA02231943DD
:104EE000018370470A460021818B4FF6FB731940FE
:104EF0001143818370470A460021818B4FF6FF33AF
:104F000019404FF6FF7303EA022319438183704768
:104F10000A460021018B4FF67F731940114301832C
:104F200070470A460021018BC1F30E014FF6FF7353
:104F300003EA02231943018370470A460021818B4B
:104F40004FF67F7319401143818370470A46002151
:104F5000818BC1F30E014FF6FF7303EA022319435D
:104F6000818370470A460021018C4FF6FD7319407A
:104F70001143018470470A460021018C4FF6F773F4
:104F800019401143018470470A460021018C4FF6F5
:104F9000DF7319404FF6FF7303EA021319430184CC
:104FA00070470A460021018C4FF67F7319404FF677
:104FB000FF7303EA02131943018470470A46002174
:104FC000018C4FF6FF5319404FF6FF7303EA02239B
:104FD0001943018470470A460021018C4FF2FF7388
:104FE00019404FF6FF7303EA022319430184704707
:104FF0000A460021018C4DF6FF7319404FF6FF73EE
:1050000003EA023319430184704730B500230124B9
:105010008C40A3B2048C9C430484048C02FA01F5F6
:10502000ADB22C43048430BD30B5002304248C4041
:10503000A3B2048C9C430484048C02FA01F5ADB243
:105040002C43048430BD70B503460020002418466C
:10505000183001258D40ACB21D8CA5431D8409B1CB
:10506000082909D100EB6100056825F0700505608D
:105070000568154305600EE00D1FC5F34E05284475
:10508000056825F4E045056005684FF6FF7606EAF9
:1050900002263543056070BD21B1028842F002024C
:1050A000028004E002884FF6FD731A4002807047C8
:1050B00021B1028842F00402028004E002884FF627
:1050C000FB731A400280704721B1828842F080024F
:1050D000828004E082884FF67F731A408280704796
:1050E00002884FF6F7731A40028002880A43028052
:1050F000704782884FF68F731A40828082880A43F5
:105100008280704702894FF6F8731A400281028943
:105110000A430281704702894FF67F731A40028169
:1051200002890A43028170478184704781857047F4
:10513000818670470187704781877047A0F84010CB
:10514000704702884FF6FF431A40028002880A43E4
:10515000028070470146888E70470146088F70476D
:105160000146888F70470146B1F8400070470146FC
:10517000888C70470146088D704702460020138ACC
:105180000B400BB1012000E000207047CA430282AF
:10519000704730B50246002000230024158A05EA36
:1051A0000103958905EA010413B10CB1012000E067
:1051B000002030BDCA4302827047000010B504468B
:1051C000FB48844209D101218803FFF79FF80021A1
:1051D0004FF48040FFF79AF832E0F648844209D154
:1051E00001214804FFF79FF800214FF40030FFF73A
:1051F0009AF825E0F048844209D101218804FFF79C
:1052000092F800214FF48020FFF78DF818E0EB486A
:10521000844209D10121C804FFF785F800214FF429
:105220000020FFF780F80BE0E548844208D1012117
:105230000805FFF778F800214FF48010FFF773F8A6
:1052400010BD2DE9F04786B005460E460024A24663
:1052500000BFA1460027B08900B100BF2F462C8AAD
:105260004CF6FF700440F08804432C82AC894EF663
:10527000F3100440B088318908437189084304431E
:10528000AC81AC8A4FF6FF400440B0890443AC8245
:1052900001A8FEF7B4FFC648874202D1DDF810A08E
:1052A00001E0DDF80CA0A88900F4004040B10AEB51
:1052B000CA0000EB0A1031684900B0FBF1F807E0C2
:1052C0000AEBCA0000EB0A1031688900B0FBF1F864
:1052D0006420B8FBF0F004012009642101FB10896F
:1052E000A88900F4004040B1322000EBC900B0FBB7
:1052F000F1F000F00700044308E0322000EB091051
:105300006421B0FBF1F000F00F0004432C8106B0E3
:10531000BDE8F0874FF41651016000218180C18003
:1053200001810C21418100218181704710B5024625
:105330000020108A4FF2FF0318400B884C8823434B
:105340008C882343CC8823431843108210BD00214E
:10535000018041808180C180704721B1828942F4FF
:105360000052828104E082894DF6FF731A408281E7
:105370007047F0B50346002400260025002040F6C3
:105380006A17B94200D100BF1846C1F3421401F0B8
:105390001F06012707FA06F5012C01D10C3004E0A5
:1053A000022C01D1103000E014301AB107682F43ED
:1053B000076002E00768AF430760F0BD1AB1838A57
:1053C0000B43838202E0838A8B4383827047028A85
:1053D0004FF6F0731A400282028A0A430282704733
:1053E00082894FF2FF731A40828182890A43828147
:1053F000704721B1828942F00202828104E08289F1
:105400004FF6FD731A4082817047028A4FF6DF73B0
:105410001A400282028A0A430282704721B1028A3C
:1054200042F48042028204E0028A4BF6FF731A4083
:1054300002827047C1F30802828070470146888863
:10544000C0F308007047818941F0010181817047F4
:10545000028BD2B20283028B42EA0122028370479E
:10546000028B02F47F420283028B0A43028370475D
:1054700021B1828A42F02002828204E0828A4FF6C1
:10548000DF731A408282704721B1828A42F0100293
:10549000828204E0828A4FF6EF731A40828270475C
:1054A00021B1828A42F00802828204E0828A4FF6A9
:1054B000F7731A408282704721B1828942F4004218
:1054C000828103E08289C2F30E028281704721B19A
:1054D000828A42F40062828204E0828A4FF2FF7381
:1054E0001A4082827047828A4FF6FB731A4082828A
:1054F000828A0A438282704721B1828A42F0020284
:10550000828204E0828A4FF6FD731A4082827047DD
:1055100002460020B1F5007F00D100BF13880B4088
:105520000BB1012000E00020704701F40072B2F5D9
:10553000007F00D100BFCA430280704770B50246A9
:10554000002400230025002040F66A16B14200D155
:1055500000BFC1F3421501F01F03012606FA03F351
:10556000012D02D19689334006E0022D02D1168A20
:10557000334001E0968A33400C12012606FA04F407
:105580001688344013B10CB1012000E0002070BD3A
:1055900010B50022002340F66A14A14200D100BFDA
:1055A0000A1201249440A3B2DC43048010BD000021
:1055B000003801400044004000480040004C0040DA
:1055C0000050004001460022022004E00B5C13441E
:1055D0009AB2431CD8B2CB789B1C8342F6DCD343EF
:1055E0009AB2D0B270477CB504460D4655208DF86E
:1055F00001008DF800008DF8024004208DF80300B2
:105600000D208DF804008DF805506846FFF7DAFF8D
:105610008DF80600072269463648FEF77EF97CBD04
:10562000FEB506460C461546002C00DA0024B4F5FB
:105630007A7F01DD4FF47A7455208DF801008DF8E2
:1056400000008DF8026007208DF8030001208DF81E
:105650000400E0B28DF80500200A8DF80600E8B2DB
:105660008DF8070028128DF808006846FFF7AAFF9A
:105670008DF809000A2269461E48FEF74EF9FEBD64
:105680001CB5044655208DF801008DF800008DF8FA
:10569000024004208DF803001F208DF80400002034
:1056A0008DF805006846FFF78DFF8DF8060007228C
:1056B00069461048FEF731F91CBD1CB5044655205B
:1056C0008DF801008DF800008DF8024004208DF85F
:1056D00003001F208DF8040001208DF805006846A6
:1056E000FFF770FF8DF80600072269460148FEF7B4
:1056F00014F91CBD0044004010B547A000F074FF31
:1057000000204A49086048608860C860C861086233
:105710004748086147484861002088614649086059
:1057200048608860C860C8610862414808614148B3
:105730004861002088614149086048608860C8600D
:10574000C86108623E4808610020486188613D499F
:10575000086048608860C860C861086238480861AD
:1057600000204861886138A000F03EFF10BD2DE99F
:10577000F0410446D4E9000100F04EFDA060A168AC
:10578000206A00F0F7FC2062D4E9020100F044FD39
:105790000746A16900F046FD0546216A606900F0F0
:1057A00041FD0746A168206900F03CFD804639466E
:1057B00000F0E0FC0646294600F0DCFCE061A06851
:1057C000E060E06900F0F0FD07460022224B00F0A7
:1057D0005BFD054600F0FBFD60606068BDE8F081A0
:1057E0002DE9F0410446D4E9000100F015FDA06068
:1057F000A168206900F016FDE061E06900F0D4FDC9
:1058000007460022144B00F03FFD054600F0DFFD87
:105810006060E069BDE8F0815049445F696E697479
:1058200020626567696E200D0A0000009008002064
:1058300033333340A69B443BB4080020D8080020F3
:1058400000002042FC0800205049445F696E6974E2
:1058500020656E64200D0A000000F03F7FB505460C
:105860000C4601210220FEF744FDADF80850ADF8CA
:1058700004400020ADF80A00ADF8060001A9254853
:10588000FEF762FE012211462248FFF7D4F91D20DF
:105890008DF8000001208DF8010003208DF8020032
:1058A00001208DF803006846FEF791F9012119489F
:1058B000FFF7A6F97FBD7FB505460C4601210846D6
:1058C000FEF717FDADF80850ADF804400020ADF824
:1058D0000A00ADF8060001A94FF08040FEF734FE43
:1058E000012211469007FFF7A6F91C208DF8000051
:1058F00001208DF8010003208DF8020001208DF8B1
:1059000003006846FEF763F901218807FFF778F97D
:105910007FBD00000004004010B54021F948FEF7AB
:10592000CCFA8021F748FEF7C8FA8021F548FEF747
:10593000C6FA4021F348FEF7C2FA10BD10B5402167
:10594000F048FEF7BAFA8021EE48FEF7B8FA802157
:10595000EC48FEF7B2FA10BD10B54021E948FEF759
:10596000ACFA4021E748FEF7AAFA10BD2DE9F04154
:1059700005462C464021E348FEF7A1FA002619E02F
:10598000274607F08007802F04D18021DD48FEF7ED
:1059900094FA03E08021DB48FEF791FA6006040EDA
:1059A0004021D848FEF789FA4021D648FEF787FA09
:1059B000701CC6B2082EE3DBBDE8F08110B50446CA
:1059C000FFF7AAFF7820FFF7D1FFFFF7C5FF002000
:1059D000FFF7CCFFFFF7C0FF2046FFF7C7FFFFF739
:1059E000BBFFFFF7ABFF10BD10B50446FFF794FFF8
:1059F0007820FFF7BBFFFFF7AFFF4020FFF7B6FFB0
:105A0000FFF7AAFF2046FFF7B1FFFFF7A5FFFFF75B
:105A100095FF10BD70B504460D461DB1E0B2FFF70D
:105A2000E3FF02E0E0B2FFF7C9FF70BD70B50646C4
:105A3000002418E004F1B0000021FFF7EBFF002183
:105A40000846FFF7E7FF00211020FFF7E3FF0025DE
:105A500005E001213046FFF7DDFF681CC5B2802D4F
:105A6000F7DB601CC4B2082CE4DB70BD06E041F635
:105A7000650100E0491E0029FCD1401E0028F6D136
:105A80007047014605E0002001E0421CD0B27B28AF
:105A9000FBDB0A1EA1F10101F5D1704770B5044688
:105AA0000D4605F1B0000021FFF7B4FF102141EAD7
:105AB00014100021FFF7AEFF04F00F000021FFF7E4
:105AC000A9FF70BD10B500218D20FFF7A3FF0021B5
:105AD0001420FFF79FFF0021AF20FFF79BFF10BDB1
